{
  "_format": "hh-sol-artifact-1",
  "contractName": "MercadoNFT",
  "sourceName": "contracts/MercadoNFT.sol",
  "abi": [
    {
      "inputs": [
        {
          "internalType": "address",
          "name": "_tokenPago",
          "type": "address"
        }
      ],
      "stateMutability": "nonpayable",
      "type": "constructor"
    },
    {
      "inputs": [],
      "name": "ReentrancyGuardReentrantCall",
      "type": "error"
    },
    {
      "anonymous": false,
      "inputs": [
        {
          "indexed": true,
          "internalType": "address",
          "name": "vendedor",
          "type": "address"
        },
        {
          "indexed": true,
          "internalType": "address",
          "name": "contratoNFT",
          "type": "address"
        },
        {
          "indexed": true,
          "internalType": "uint256",
          "name": "idNFT",
          "type": "uint256"
        }
      ],
      "name": "ListadoCancelado",
      "type": "event"
    },
    {
      "anonymous": false,
      "inputs": [
        {
          "indexed": true,
          "internalType": "address",
          "name": "comprador",
          "type": "address"
        },
        {
          "indexed": true,
          "internalType": "address",
          "name": "contratoNFT",
          "type": "address"
        },
        {
          "indexed": true,
          "internalType": "uint256",
          "name": "idNFT",
          "type": "uint256"
        },
        {
          "indexed": false,
          "internalType": "address",
          "name": "vendedor",
          "type": "address"
        },
        {
          "indexed": false,
          "internalType": "uint256",
          "name": "precio",
          "type": "uint256"
        }
      ],
      "name": "NFTComprado",
      "type": "event"
    },
    {
      "anonymous": false,
      "inputs": [
        {
          "indexed": true,
          "internalType": "address",
          "name": "vendedor",
          "type": "address"
        },
        {
          "indexed": true,
          "internalType": "address",
          "name": "contratoNFT",
          "type": "address"
        },
        {
          "indexed": true,
          "internalType": "uint256",
          "name": "idNFT",
          "type": "uint256"
        },
        {
          "indexed": false,
          "internalType": "uint256",
          "name": "precio",
          "type": "uint256"
        }
      ],
      "name": "NFTListado",
      "type": "event"
    },
    {
      "anonymous": false,
      "inputs": [
        {
          "indexed": true,
          "internalType": "address",
          "name": "vendedor",
          "type": "address"
        },
        {
          "indexed": true,
          "internalType": "address",
          "name": "contratoNFT",
          "type": "address"
        },
        {
          "indexed": true,
          "internalType": "uint256",
          "name": "idNFT",
          "type": "uint256"
        },
        {
          "indexed": false,
          "internalType": "uint256",
          "name": "nuevoPrecio",
          "type": "uint256"
        }
      ],
      "name": "PrecioActualizado",
      "type": "event"
    },
    {
      "inputs": [
        {
          "internalType": "address",
          "name": "contratoNFT",
          "type": "address"
        },
        {
          "internalType": "uint256",
          "name": "idNFT",
          "type": "uint256"
        },
        {
          "internalType": "uint256",
          "name": "nuevoPrecio",
          "type": "uint256"
        }
      ],
      "name": "actualizarPrecio",
      "outputs": [],
      "stateMutability": "nonpayable",
      "type": "function"
    },
    {
      "inputs": [
        {
          "internalType": "address",
          "name": "contratoNFT",
          "type": "address"
        },
        {
          "internalType": "uint256",
          "name": "idNFT",
          "type": "uint256"
        }
      ],
      "name": "cancelarListado",
      "outputs": [],
      "stateMutability": "nonpayable",
      "type": "function"
    },
    {
      "inputs": [
        {
          "internalType": "address",
          "name": "contratoNFT",
          "type": "address"
        },
        {
          "internalType": "uint256",
          "name": "idNFT",
          "type": "uint256"
        }
      ],
      "name": "comprarNFT",
      "outputs": [],
      "stateMutability": "nonpayable",
      "type": "function"
    },
    {
      "inputs": [
        {
          "internalType": "address",
          "name": "",
          "type": "address"
        },
        {
          "internalType": "uint256",
          "name": "",
          "type": "uint256"
        }
      ],
      "name": "listados",
      "outputs": [
        {
          "internalType": "address",
          "name": "vendedor",
          "type": "address"
        },
        {
          "internalType": "uint256",
          "name": "precio",
          "type": "uint256"
        }
      ],
      "stateMutability": "view",
      "type": "function"
    },
    {
      "inputs": [
        {
          "internalType": "address",
          "name": "contratoNFT",
          "type": "address"
        },
        {
          "internalType": "uint256",
          "name": "idNFT",
          "type": "uint256"
        },
        {
          "internalType": "uint256",
          "name": "precio",
          "type": "uint256"
        }
      ],
      "name": "listarNFT",
      "outputs": [],
      "stateMutability": "nonpayable",
      "type": "function"
    },
    {
      "inputs": [
        {
          "internalType": "address",
          "name": "contratoNFT",
          "type": "address"
        },
        {
          "internalType": "uint256",
          "name": "idNFT",
          "type": "uint256"
        }
      ],
      "name": "obtenerListado",
      "outputs": [
        {
          "components": [
            {
              "internalType": "address",
              "name": "vendedor",
              "type": "address"
            },
            {
              "internalType": "uint256",
              "name": "precio",
              "type": "uint256"
            }
          ],
          "internalType": "struct MercadoNFT.Listado",
          "name": "",
          "type": "tuple"
        }
      ],
      "stateMutability": "view",
      "type": "function"
    },
    {
      "inputs": [],
      "name": "tokenPago",
      "outputs": [
        {
          "internalType": "contract IERC20",
          "name": "",
          "type": "address"
        }
      ],
      "stateMutability": "view",
      "type": "function"
    }
  ],
  "bytecode": "0x60a06040523480156200001157600080fd5b5060405162001767380380620017678339818101604052810190620000379190620000e4565b60016000819055508073ffffffffffffffffffffffffffffffffffffffff1660808173ffffffffffffffffffffffffffffffffffffffff16815250505062000116565b600080fd5b600073ffffffffffffffffffffffffffffffffffffffff82169050919050565b6000620000ac826200007f565b9050919050565b620000be816200009f565b8114620000ca57600080fd5b50565b600081519050620000de81620000b3565b92915050565b600060208284031215620000fd57620000fc6200007a565b5b60006200010d84828501620000cd565b91505092915050565b60805161162e62000139600039600081816101c40152610be9015261162e6000f3fe608060405234801561001057600080fd5b506004361061007d5760003560e01c80635710226a1161005b5780635710226a14610101578063890c96841461011d578063c413cc9014610139578063f998c146146101555761007d565b806304ca6b4b1461008257806316a64416146100b35780634a85b35a146100d1575b600080fd5b61009c60048036038101906100979190610f1c565b610171565b6040516100aa929190610f7a565b60405180910390f35b6100bb6101c2565b6040516100c89190611002565b60405180910390f35b6100eb60048036038101906100e69190610f1c565b6101e6565b6040516100f8919061106a565b60405180910390f35b61011b60048036038101906101169190611085565b6102b1565b005b61013760048036038101906101329190610f1c565b61044f565b005b610153600480360381019061014e9190611085565b610662565b005b61016f600480360381019061016a9190610f1c565b610a36565b005b6001602052816000526040600020602052806000526040600020600091509150508060000160009054906101000a900473ffffffffffffffffffffffffffffffffffffffff16908060010154905082565b7f000000000000000000000000000000000000000000000000000000000000000081565b6101ee610e53565b600160008473ffffffffffffffffffffffffffffffffffffffff1673ffffffffffffffffffffffffffffffffffffffff16815260200190815260200160002060008381526020019081526020016000206040518060400160405290816000820160009054906101000a900473ffffffffffffffffffffffffffffffffffffffff1673ffffffffffffffffffffffffffffffffffffffff1673ffffffffffffffffffffffffffffffffffffffff168152602001600182015481525050905092915050565b600081116102f4576040517f08c379a00000000000000000000000000000000000000000000000000000000081526004016102eb9061115b565b60405180910390fd5b6000600160008573ffffffffffffffffffffffffffffffffffffffff1673ffffffffffffffffffffffffffffffffffffffff168152602001908152602001600020600084815260200190815260200160002090503373ffffffffffffffffffffffffffffffffffffffff168160000160009054906101000a900473ffffffffffffffffffffffffffffffffffffffff1673ffffffffffffffffffffffffffffffffffffffff16146103da576040517f08c379a00000000000000000000000000000000000000000000000000000000081526004016103d1906111ed565b60405180910390fd5b818160010181905550828473ffffffffffffffffffffffffffffffffffffffff163373ffffffffffffffffffffffffffffffffffffffff167f1f640a5683a85ac3050933f50049a354cd48554bf7c330be424b988938dd454785604051610441919061120d565b60405180910390a450505050565b6000600160008473ffffffffffffffffffffffffffffffffffffffff1673ffffffffffffffffffffffffffffffffffffffff16815260200190815260200160002060008381526020019081526020016000206040518060400160405290816000820160009054906101000a900473ffffffffffffffffffffffffffffffffffffffff1673ffffffffffffffffffffffffffffffffffffffff1673ffffffffffffffffffffffffffffffffffffffff16815260200160018201548152505090503373ffffffffffffffffffffffffffffffffffffffff16816000015173ffffffffffffffffffffffffffffffffffffffff1614610580576040517f08c379a0000000000000000000000000000000000000000000000000000000008152600401610577906111ed565b60405180910390fd5b600160008473ffffffffffffffffffffffffffffffffffffffff1673ffffffffffffffffffffffffffffffffffffffff1681526020019081526020016000206000838152602001908152602001600020600080820160006101000a81549073ffffffffffffffffffffffffffffffffffffffff021916905560018201600090555050818373ffffffffffffffffffffffffffffffffffffffff163373ffffffffffffffffffffffffffffffffffffffff167f935fa2901e02003494220e5b46f3cca2d6995a26529eb982f86aed271e9c3a2e60405160405180910390a4505050565b600081116106a5576040517f08c379a000000000000000000000000000000000000000000000000000000000815260040161069c9061115b565b60405180910390fd5b60008390503373ffffffffffffffffffffffffffffffffffffffff168173ffffffffffffffffffffffffffffffffffffffff16636352211e856040518263ffffffff1660e01b81526004016106fa919061120d565b602060405180830381865afa158015610717573d6000803e3d6000fd5b505050506040513d601f19601f8201168201806040525081019061073b919061123d565b73ffffffffffffffffffffffffffffffffffffffff1614610791576040517f08c379a0000000000000000000000000000000000000000000000000000000008152600401610788906112dc565b60405180910390fd5b3073ffffffffffffffffffffffffffffffffffffffff168173ffffffffffffffffffffffffffffffffffffffff1663081812fc856040518263ffffffff1660e01b81526004016107e1919061120d565b602060405180830381865afa1580156107fe573d6000803e3d6000fd5b505050506040513d601f19601f82011682018060405250810190610822919061123d565b73ffffffffffffffffffffffffffffffffffffffff1614806108bc57508073ffffffffffffffffffffffffffffffffffffffff1663e985e9c533306040518363ffffffff1660e01b815260040161087a9291906112fc565b602060405180830381865afa158015610897573d6000803e3d6000fd5b505050506040513d601f19601f820116820180604052508101906108bb919061135d565b5b6108fb576040517f08c379a00000000000000000000000000000000000000000000000000000000081526004016108f2906113fc565b60405180910390fd5b60405180604001604052803373ffffffffffffffffffffffffffffffffffffffff16815260200183815250600160008673ffffffffffffffffffffffffffffffffffffffff1673ffffffffffffffffffffffffffffffffffffffff168152602001908152602001600020600085815260200190815260200160002060008201518160000160006101000a81548173ffffffffffffffffffffffffffffffffffffffff021916908373ffffffffffffffffffffffffffffffffffffffff16021790555060208201518160010155905050828473ffffffffffffffffffffffffffffffffffffffff163373ffffffffffffffffffffffffffffffffffffffff167fb6cb715e0fdf93b0da3537c249110dab439a825826bb600e86cfc10db46e019185604051610a28919061120d565b60405180910390a450505050565b610a3e610e03565b6000600160008473ffffffffffffffffffffffffffffffffffffffff1673ffffffffffffffffffffffffffffffffffffffff16815260200190815260200160002060008381526020019081526020016000206040518060400160405290816000820160009054906101000a900473ffffffffffffffffffffffffffffffffffffffff1673ffffffffffffffffffffffffffffffffffffffff1673ffffffffffffffffffffffffffffffffffffffff1681526020016001820154815250509050600073ffffffffffffffffffffffffffffffffffffffff16816000015173ffffffffffffffffffffffffffffffffffffffff1603610b70576040517f08c379a0000000000000000000000000000000000000000000000000000000008152600401610b679061148e565b60405180910390fd5b3373ffffffffffffffffffffffffffffffffffffffff16816000015173ffffffffffffffffffffffffffffffffffffffff1603610be2576040517f08c379a0000000000000000000000000000000000000000000000000000000008152600401610bd990611520565b60405180910390fd5b60008390507f000000000000000000000000000000000000000000000000000000000000000073ffffffffffffffffffffffffffffffffffffffff166323b872dd33846000015185602001516040518463ffffffff1660e01b8152600401610c4c93929190611540565b6020604051808303816000875af1158015610c6b573d6000803e3d6000fd5b505050506040513d601f19601f82011682018060405250810190610c8f919061135d565b50600160008573ffffffffffffffffffffffffffffffffffffffff1673ffffffffffffffffffffffffffffffffffffffff1681526020019081526020016000206000848152602001908152602001600020600080820160006101000a81549073ffffffffffffffffffffffffffffffffffffffff0219169055600182016000905550508073ffffffffffffffffffffffffffffffffffffffff1663b88d4fde836000015133866040518463ffffffff1660e01b8152600401610d53939291906115ae565b600060405180830381600087803b158015610d6d57600080fd5b505af1158015610d81573d6000803e3d6000fd5b50505050828473ffffffffffffffffffffffffffffffffffffffff163373ffffffffffffffffffffffffffffffffffffffff167f62d45324e8f62bedd71c82ebd4d4e2044ace949a4eabb1306a119274132aa8e385600001518660200151604051610ded929190610f7a565b60405180910390a45050610dff610e49565b5050565b600260005403610e3f576040517f3ee5aeb500000000000000000000000000000000000000000000000000000000815260040160405180910390fd5b6002600081905550565b6001600081905550565b6040518060400160405280600073ffffffffffffffffffffffffffffffffffffffff168152602001600081525090565b600080fd5b600073ffffffffffffffffffffffffffffffffffffffff82169050919050565b6000610eb382610e88565b9050919050565b610ec381610ea8565b8114610ece57600080fd5b50565b600081359050610ee081610eba565b92915050565b6000819050919050565b610ef981610ee6565b8114610f0457600080fd5b50565b600081359050610f1681610ef0565b92915050565b60008060408385031215610f3357610f32610e83565b5b6000610f4185828601610ed1565b9250506020610f5285828601610f07565b9150509250929050565b610f6581610ea8565b82525050565b610f7481610ee6565b82525050565b6000604082019050610f8f6000830185610f5c565b610f9c6020830184610f6b565b9392505050565b6000819050919050565b6000610fc8610fc3610fbe84610e88565b610fa3565b610e88565b9050919050565b6000610fda82610fad565b9050919050565b6000610fec82610fcf565b9050919050565b610ffc81610fe1565b82525050565b60006020820190506110176000830184610ff3565b92915050565b61102681610ea8565b82525050565b61103581610ee6565b82525050565b604082016000820151611051600085018261101d565b506020820151611064602085018261102c565b50505050565b600060408201905061107f600083018461103b565b92915050565b60008060006060848603121561109e5761109d610e83565b5b60006110ac86828701610ed1565b93505060206110bd86828701610f07565b92505060406110ce86828701610f07565b9150509250925092565b600082825260208201905092915050565b7f4d65726361646f3a20456c2070726563696f206465626520736572206d61796f60008201527f722061206365726f000000000000000000000000000000000000000000000000602082015250565b60006111456028836110d8565b9150611150826110e9565b604082019050919050565b6000602082019050818103600083015261117481611138565b9050919050565b7f4d65726361646f3a204e6f206572657320656c2076656e6465646f722064652060008201527f65737465204e4654000000000000000000000000000000000000000000000000602082015250565b60006111d76028836110d8565b91506111e28261117b565b604082019050919050565b60006020820190508181036000830152611206816111ca565b9050919050565b60006020820190506112226000830184610f6b565b92915050565b60008151905061123781610eba565b92915050565b60006020828403121561125357611252610e83565b5b600061126184828501611228565b91505092915050565b7f4d65726361646f3a204e6f206572657320656c206475656e6f2064652065737460008201527f65204e4654000000000000000000000000000000000000000000000000000000602082015250565b60006112c66025836110d8565b91506112d18261126a565b604082019050919050565b600060208201905081810360008301526112f5816112b9565b9050919050565b60006040820190506113116000830185610f5c565b61131e6020830184610f5c565b9392505050565b60008115159050919050565b61133a81611325565b811461134557600080fd5b50565b60008151905061135781611331565b92915050565b60006020828403121561137357611372610e83565b5b600061138184828501611348565b91505092915050565b7f4d65726361646f3a20456c20636f6e747261746f206e6f20657374612061707260008201527f6f6261646f2070617261207472616e7366657269722065737465204e46540000602082015250565b60006113e6603e836110d8565b91506113f18261138a565b604082019050919050565b60006020820190508181036000830152611415816113d9565b9050919050565b7f4d65726361646f3a2045737465204e4654206e6f20657374612061206c61207660008201527f656e746100000000000000000000000000000000000000000000000000000000602082015250565b60006114786024836110d8565b91506114838261141c565b604082019050919050565b600060208201905081810360008301526114a78161146b565b9050919050565b7f4d65726361646f3a204e6f2070756564657320636f6d7072617220747520707260008201527f6f70696f204e4654000000000000000000000000000000000000000000000000602082015250565b600061150a6028836110d8565b9150611515826114ae565b604082019050919050565b60006020820190508181036000830152611539816114fd565b9050919050565b60006060820190506115556000830186610f5c565b6115626020830185610f5c565b61156f6040830184610f6b565b949350505050565b600082825260208201905092915050565b50565b6000611598600083611577565b91506115a382611588565b600082019050919050565b60006080820190506115c36000830186610f5c565b6115d06020830185610f5c565b6115dd6040830184610f6b565b81810360608301526115ee8161158b565b905094935050505056fea264697066735822122072cfc868d046023495eaf7c8babfbe52e4682db66233755bdf9f89beaf91659664736f6c63430008140033",
  "linkReferences": {},
  "deployedLinkReferences": {}
}