{
  "_format": "hh-sol-artifact-1",
  "contractName": "MercadoNFT",
  "sourceName": "contracts/MercadoNFT.sol",
  "abi": [
    {
      "inputs": [
        {
          "internalType": "address",
          "name": "_tokenPago",
          "type": "address"
        }
      ],
      "stateMutability": "nonpayable",
      "type": "constructor"
    },
    {
      "anonymous": false,
      "inputs": [
        {
          "indexed": true,
          "internalType": "address",
          "name": "comprador",
          "type": "address"
        },
        {
          "indexed": true,
          "internalType": "address",
          "name": "contratoNFT",
          "type": "address"
        },
        {
          "indexed": true,
          "internalType": "uint256",
          "name": "idNFT",
          "type": "uint256"
        },
        {
          "indexed": false,
          "internalType": "uint256",
          "name": "precio",
          "type": "uint256"
        }
      ],
      "name": "NFTComprado",
      "type": "event"
    },
    {
      "anonymous": false,
      "inputs": [
        {
          "indexed": true,
          "internalType": "address",
          "name": "vendedor",
          "type": "address"
        },
        {
          "indexed": true,
          "internalType": "address",
          "name": "contratoNFT",
          "type": "address"
        },
        {
          "indexed": true,
          "internalType": "uint256",
          "name": "idNFT",
          "type": "uint256"
        },
        {
          "indexed": false,
          "internalType": "uint256",
          "name": "precio",
          "type": "uint256"
        }
      ],
      "name": "NFTEnVenta",
      "type": "event"
    },
    {
      "inputs": [
        {
          "internalType": "uint256",
          "name": "idVenta",
          "type": "uint256"
        }
      ],
      "name": "comprarNFT",
      "outputs": [],
      "stateMutability": "nonpayable",
      "type": "function"
    },
    {
      "inputs": [],
      "name": "contadorVentas",
      "outputs": [
        {
          "internalType": "uint256",
          "name": "",
          "type": "uint256"
        }
      ],
      "stateMutability": "view",
      "type": "function"
    },
    {
      "inputs": [],
      "name": "tokenPago",
      "outputs": [
        {
          "internalType": "contract IERC20",
          "name": "",
          "type": "address"
        }
      ],
      "stateMutability": "view",
      "type": "function"
    },
    {
      "inputs": [
        {
          "internalType": "address",
          "name": "contratoNFT",
          "type": "address"
        },
        {
          "internalType": "uint256",
          "name": "idNFT",
          "type": "uint256"
        },
        {
          "internalType": "uint256",
          "name": "precio",
          "type": "uint256"
        }
      ],
      "name": "venderNFT",
      "outputs": [],
      "stateMutability": "nonpayable",
      "type": "function"
    },
    {
      "inputs": [
        {
          "internalType": "uint256",
          "name": "",
          "type": "uint256"
        }
      ],
      "name": "ventas",
      "outputs": [
        {
          "internalType": "address",
          "name": "vendedor",
          "type": "address"
        },
        {
          "internalType": "address",
          "name": "contratoNFT",
          "type": "address"
        },
        {
          "internalType": "uint256",
          "name": "idNFT",
          "type": "uint256"
        },
        {
          "internalType": "uint256",
          "name": "precio",
          "type": "uint256"
        },
        {
          "internalType": "bool",
          "name": "estaActiva",
          "type": "bool"
        }
      ],
      "stateMutability": "view",
      "type": "function"
    }
  ],
  "bytecode": "0x608060405234801561001057600080fd5b50604051610dff380380610dff833981810160405281019061003291906100db565b806000806101000a81548173ffffffffffffffffffffffffffffffffffffffff021916908373ffffffffffffffffffffffffffffffffffffffff16021790555050610108565b600080fd5b600073ffffffffffffffffffffffffffffffffffffffff82169050919050565b60006100a88261007d565b9050919050565b6100b88161009d565b81146100c357600080fd5b50565b6000815190506100d5816100af565b92915050565b6000602082840312156100f1576100f0610078565b5b60006100ff848285016100c6565b91505092915050565b610ce8806101176000396000f3fe608060405234801561001057600080fd5b50600436106100575760003560e01c806311b006741461005c57806316a64416146100905780635e4e9709146100ae578063a7960806146100ca578063bda84a27146100e8575b600080fd5b610076600480360381019061007191906107ec565b610104565b604051610087959493929190610884565b60405180910390f35b610098610187565b6040516100a59190610936565b60405180910390f35b6100c860048036038101906100c3919061097d565b6101ab565b005b6100d2610506565b6040516100df91906109d0565b60405180910390f35b61010260048036038101906100fd91906107ec565b61050c565b005b60016020528060005260406000206000915090508060000160009054906101000a900473ffffffffffffffffffffffffffffffffffffffff16908060010160009054906101000a900473ffffffffffffffffffffffffffffffffffffffff16908060020154908060030154908060040160009054906101000a900460ff16905085565b60008054906101000a900473ffffffffffffffffffffffffffffffffffffffff1681565b60008390503373ffffffffffffffffffffffffffffffffffffffff168173ffffffffffffffffffffffffffffffffffffffff16636352211e856040518263ffffffff1660e01b815260040161020091906109d0565b602060405180830381865afa15801561021d573d6000803e3d6000fd5b505050506040513d601f19601f820116820180604052508101906102419190610a00565b73ffffffffffffffffffffffffffffffffffffffff1614610297576040517f08c379a000000000000000000000000000000000000000000000000000000000815260040161028e90610a8a565b60405180910390fd5b8073ffffffffffffffffffffffffffffffffffffffff1663e985e9c533306040518363ffffffff1660e01b81526004016102d2929190610aaa565b602060405180830381865afa1580156102ef573d6000803e3d6000fd5b505050506040513d601f19601f820116820180604052508101906103139190610aff565b610352576040517f08c379a000000000000000000000000000000000000000000000000000000000815260040161034990610b78565b60405180910390fd5b6040518060a001604052803373ffffffffffffffffffffffffffffffffffffffff1681526020018573ffffffffffffffffffffffffffffffffffffffff1681526020018481526020018381526020016001151581525060016000600254815260200190815260200160002060008201518160000160006101000a81548173ffffffffffffffffffffffffffffffffffffffff021916908373ffffffffffffffffffffffffffffffffffffffff16021790555060208201518160010160006101000a81548173ffffffffffffffffffffffffffffffffffffffff021916908373ffffffffffffffffffffffffffffffffffffffff160217905550604082015181600201556060820151816003015560808201518160040160006101000a81548160ff0219169083151502179055509050506002600081548092919061049590610bc7565b9190505550828473ffffffffffffffffffffffffffffffffffffffff163373ffffffffffffffffffffffffffffffffffffffff167f754840a9989c97864add819c07aceb6fe417ffaad80ccc2d41c489b2dc2dcf23856040516104f891906109d0565b60405180910390a450505050565b60025481565b60006001600083815260200190815260200160002090508060040160009054906101000a900460ff16610574576040517f08c379a000000000000000000000000000000000000000000000000000000000815260040161056b90610c5b565b60405180910390fd5b60008160010160009054906101000a900473ffffffffffffffffffffffffffffffffffffffff16905060008054906101000a900473ffffffffffffffffffffffffffffffffffffffff1673ffffffffffffffffffffffffffffffffffffffff166323b872dd338460000160009054906101000a900473ffffffffffffffffffffffffffffffffffffffff1685600301546040518463ffffffff1660e01b815260040161062293929190610c7b565b6020604051808303816000875af1158015610641573d6000803e3d6000fd5b505050506040513d601f19601f820116820180604052508101906106659190610aff565b508073ffffffffffffffffffffffffffffffffffffffff166323b872dd8360000160009054906101000a900473ffffffffffffffffffffffffffffffffffffffff163385600201546040518463ffffffff1660e01b81526004016106cb93929190610c7b565b600060405180830381600087803b1580156106e557600080fd5b505af11580156106f9573d6000803e3d6000fd5b5050505060008260040160006101000a81548160ff02191690831515021790555081600201548260010160009054906101000a900473ffffffffffffffffffffffffffffffffffffffff1673ffffffffffffffffffffffffffffffffffffffff163373ffffffffffffffffffffffffffffffffffffffff167fcff87e28058cb4ed4842d2234e54b623b9ae76405f132c08fbdf9f5c8e731bec85600301546040516107a491906109d0565b60405180910390a4505050565b600080fd5b6000819050919050565b6107c9816107b6565b81146107d457600080fd5b50565b6000813590506107e6816107c0565b92915050565b600060208284031215610802576108016107b1565b5b6000610810848285016107d7565b91505092915050565b600073ffffffffffffffffffffffffffffffffffffffff82169050919050565b600061084482610819565b9050919050565b61085481610839565b82525050565b610863816107b6565b82525050565b60008115159050919050565b61087e81610869565b82525050565b600060a082019050610899600083018861084b565b6108a6602083018761084b565b6108b3604083018661085a565b6108c0606083018561085a565b6108cd6080830184610875565b9695505050505050565b6000819050919050565b60006108fc6108f76108f284610819565b6108d7565b610819565b9050919050565b600061090e826108e1565b9050919050565b600061092082610903565b9050919050565b61093081610915565b82525050565b600060208201905061094b6000830184610927565b92915050565b61095a81610839565b811461096557600080fd5b50565b60008135905061097781610951565b92915050565b600080600060608486031215610996576109956107b1565b5b60006109a486828701610968565b93505060206109b5868287016107d7565b92505060406109c6868287016107d7565b9150509250925092565b60006020820190506109e5600083018461085a565b92915050565b6000815190506109fa81610951565b92915050565b600060208284031215610a1657610a156107b1565b5b6000610a24848285016109eb565b91505092915050565b600082825260208201905092915050565b7f4e6f206572657320656c206475656e6f00000000000000000000000000000000600082015250565b6000610a74601083610a2d565b9150610a7f82610a3e565b602082019050919050565b60006020820190508181036000830152610aa381610a67565b9050919050565b6000604082019050610abf600083018561084b565b610acc602083018461084b565b9392505050565b610adc81610869565b8114610ae757600080fd5b50565b600081519050610af981610ad3565b92915050565b600060208284031215610b1557610b146107b1565b5b6000610b2384828501610aea565b91505092915050565b7f4d65726361646f206e6f206170726f6261646f00000000000000000000000000600082015250565b6000610b62601383610a2d565b9150610b6d82610b2c565b602082019050919050565b60006020820190508181036000830152610b9181610b55565b9050919050565b7f4e487b7100000000000000000000000000000000000000000000000000000000600052601160045260246000fd5b6000610bd2826107b6565b91507fffffffffffffffffffffffffffffffffffffffffffffffffffffffffffffffff8203610c0457610c03610b98565b5b600182019050919050565b7f56656e7461206e6f206163746976610000000000000000000000000000000000600082015250565b6000610c45600f83610a2d565b9150610c5082610c0f565b602082019050919050565b60006020820190508181036000830152610c7481610c38565b9050919050565b6000606082019050610c90600083018661084b565b610c9d602083018561084b565b610caa604083018461085a565b94935050505056fea2646970667358221220926452280b8cf5ecf53a88411aa5595a9320261842befba621a91d82edabf30564736f6c634300081c0033",
  "linkReferences": {},
  "deployedLinkReferences": {}
}