{
  "_format": "hh-sol-artifact-1",
  "contractName": "MiNFT",
  "sourceName": "contracts/MiNFT.sol",
  "abi": [
    {
      "inputs": [],
      "stateMutability": "nonpayable",
      "type": "constructor"
    },
    {
      "inputs": [],
      "name": "ERC721EnumerableForbiddenBatchMint",
      "type": "error"
    },
    {
      "inputs": [
        {
          "internalType": "address",
          "name": "sender",
          "type": "address"
        },
        {
          "internalType": "uint256",
          "name": "tokenId",
          "type": "uint256"
        },
        {
          "internalType": "address",
          "name": "owner",
          "type": "address"
        }
      ],
      "name": "ERC721IncorrectOwner",
      "type": "error"
    },
    {
      "inputs": [
        {
          "internalType": "address",
          "name": "operator",
          "type": "address"
        },
        {
          "internalType": "uint256",
          "name": "tokenId",
          "type": "uint256"
        }
      ],
      "name": "ERC721InsufficientApproval",
      "type": "error"
    },
    {
      "inputs": [
        {
          "internalType": "address",
          "name": "approver",
          "type": "address"
        }
      ],
      "name": "ERC721InvalidApprover",
      "type": "error"
    },
    {
      "inputs": [
        {
          "internalType": "address",
          "name": "operator",
          "type": "address"
        }
      ],
      "name": "ERC721InvalidOperator",
      "type": "error"
    },
    {
      "inputs": [
        {
          "internalType": "address",
          "name": "owner",
          "type": "address"
        }
      ],
      "name": "ERC721InvalidOwner",
      "type": "error"
    },
    {
      "inputs": [
        {
          "internalType": "address",
          "name": "receiver",
          "type": "address"
        }
      ],
      "name": "ERC721InvalidReceiver",
      "type": "error"
    },
    {
      "inputs": [
        {
          "internalType": "address",
          "name": "sender",
          "type": "address"
        }
      ],
      "name": "ERC721InvalidSender",
      "type": "error"
    },
    {
      "inputs": [
        {
          "internalType": "uint256",
          "name": "tokenId",
          "type": "uint256"
        }
      ],
      "name": "ERC721NonexistentToken",
      "type": "error"
    },
    {
      "inputs": [
        {
          "internalType": "address",
          "name": "owner",
          "type": "address"
        },
        {
          "internalType": "uint256",
          "name": "index",
          "type": "uint256"
        }
      ],
      "name": "ERC721OutOfBoundsIndex",
      "type": "error"
    },
    {
      "inputs": [
        {
          "internalType": "address",
          "name": "owner",
          "type": "address"
        }
      ],
      "name": "OwnableInvalidOwner",
      "type": "error"
    },
    {
      "inputs": [
        {
          "internalType": "address",
          "name": "account",
          "type": "address"
        }
      ],
      "name": "OwnableUnauthorizedAccount",
      "type": "error"
    },
    {
      "anonymous": false,
      "inputs": [
        {
          "indexed": true,
          "internalType": "address",
          "name": "owner",
          "type": "address"
        },
        {
          "indexed": true,
          "internalType": "address",
          "name": "approved",
          "type": "address"
        },
        {
          "indexed": true,
          "internalType": "uint256",
          "name": "tokenId",
          "type": "uint256"
        }
      ],
      "name": "Approval",
      "type": "event"
    },
    {
      "anonymous": false,
      "inputs": [
        {
          "indexed": true,
          "internalType": "address",
          "name": "owner",
          "type": "address"
        },
        {
          "indexed": true,
          "internalType": "address",
          "name": "operator",
          "type": "address"
        },
        {
          "indexed": false,
          "internalType": "bool",
          "name": "approved",
          "type": "bool"
        }
      ],
      "name": "ApprovalForAll",
      "type": "event"
    },
    {
      "anonymous": false,
      "inputs": [
        {
          "indexed": false,
          "internalType": "uint256",
          "name": "_fromTokenId",
          "type": "uint256"
        },
        {
          "indexed": false,
          "internalType": "uint256",
          "name": "_toTokenId",
          "type": "uint256"
        }
      ],
      "name": "BatchMetadataUpdate",
      "type": "event"
    },
    {
      "anonymous": false,
      "inputs": [
        {
          "indexed": false,
          "internalType": "uint256",
          "name": "_tokenId",
          "type": "uint256"
        }
      ],
      "name": "MetadataUpdate",
      "type": "event"
    },
    {
      "anonymous": false,
      "inputs": [
        {
          "indexed": true,
          "internalType": "address",
          "name": "previousOwner",
          "type": "address"
        },
        {
          "indexed": true,
          "internalType": "address",
          "name": "newOwner",
          "type": "address"
        }
      ],
      "name": "OwnershipTransferred",
      "type": "event"
    },
    {
      "anonymous": false,
      "inputs": [
        {
          "indexed": true,
          "internalType": "address",
          "name": "from",
          "type": "address"
        },
        {
          "indexed": true,
          "internalType": "address",
          "name": "to",
          "type": "address"
        },
        {
          "indexed": true,
          "internalType": "uint256",
          "name": "tokenId",
          "type": "uint256"
        }
      ],
      "name": "Transfer",
      "type": "event"
    },
    {
      "inputs": [
        {
          "internalType": "address",
          "name": "to",
          "type": "address"
        },
        {
          "internalType": "uint256",
          "name": "tokenId",
          "type": "uint256"
        }
      ],
      "name": "approve",
      "outputs": [],
      "stateMutability": "nonpayable",
      "type": "function"
    },
    {
      "inputs": [
        {
          "internalType": "address",
          "name": "owner",
          "type": "address"
        }
      ],
      "name": "balanceOf",
      "outputs": [
        {
          "internalType": "uint256",
          "name": "",
          "type": "uint256"
        }
      ],
      "stateMutability": "view",
      "type": "function"
    },
    {
      "inputs": [
        {
          "internalType": "uint256",
          "name": "tokenId",
          "type": "uint256"
        }
      ],
      "name": "getApproved",
      "outputs": [
        {
          "internalType": "address",
          "name": "",
          "type": "address"
        }
      ],
      "stateMutability": "view",
      "type": "function"
    },
    {
      "inputs": [
        {
          "internalType": "address",
          "name": "owner",
          "type": "address"
        },
        {
          "internalType": "address",
          "name": "operator",
          "type": "address"
        }
      ],
      "name": "isApprovedForAll",
      "outputs": [
        {
          "internalType": "bool",
          "name": "",
          "type": "bool"
        }
      ],
      "stateMutability": "view",
      "type": "function"
    },
    {
      "inputs": [],
      "name": "name",
      "outputs": [
        {
          "internalType": "string",
          "name": "",
          "type": "string"
        }
      ],
      "stateMutability": "view",
      "type": "function"
    },
    {
      "inputs": [],
      "name": "owner",
      "outputs": [
        {
          "internalType": "address",
          "name": "",
          "type": "address"
        }
      ],
      "stateMutability": "view",
      "type": "function"
    },
    {
      "inputs": [
        {
          "internalType": "uint256",
          "name": "tokenId",
          "type": "uint256"
        }
      ],
      "name": "ownerOf",
      "outputs": [
        {
          "internalType": "address",
          "name": "",
          "type": "address"
        }
      ],
      "stateMutability": "view",
      "type": "function"
    },
    {
      "inputs": [],
      "name": "renounceOwnership",
      "outputs": [],
      "stateMutability": "nonpayable",
      "type": "function"
    },
    {
      "inputs": [
        {
          "internalType": "string",
          "name": "tokenURI",
          "type": "string"
        }
      ],
      "name": "safeMint",
      "outputs": [
        {
          "internalType": "uint256",
          "name": "",
          "type": "uint256"
        }
      ],
      "stateMutability": "nonpayable",
      "type": "function"
    },
    {
      "inputs": [
        {
          "internalType": "address",
          "name": "from",
          "type": "address"
        },
        {
          "internalType": "address",
          "name": "to",
          "type": "address"
        },
        {
          "internalType": "uint256",
          "name": "tokenId",
          "type": "uint256"
        }
      ],
      "name": "safeTransferFrom",
      "outputs": [],
      "stateMutability": "nonpayable",
      "type": "function"
    },
    {
      "inputs": [
        {
          "internalType": "address",
          "name": "from",
          "type": "address"
        },
        {
          "internalType": "address",
          "name": "to",
          "type": "address"
        },
        {
          "internalType": "uint256",
          "name": "tokenId",
          "type": "uint256"
        },
        {
          "internalType": "bytes",
          "name": "data",
          "type": "bytes"
        }
      ],
      "name": "safeTransferFrom",
      "outputs": [],
      "stateMutability": "nonpayable",
      "type": "function"
    },
    {
      "inputs": [
        {
          "internalType": "address",
          "name": "operator",
          "type": "address"
        },
        {
          "internalType": "bool",
          "name": "approved",
          "type": "bool"
        }
      ],
      "name": "setApprovalForAll",
      "outputs": [],
      "stateMutability": "nonpayable",
      "type": "function"
    },
    {
      "inputs": [
        {
          "internalType": "bytes4",
          "name": "interfaceId",
          "type": "bytes4"
        }
      ],
      "name": "supportsInterface",
      "outputs": [
        {
          "internalType": "bool",
          "name": "",
          "type": "bool"
        }
      ],
      "stateMutability": "view",
      "type": "function"
    },
    {
      "inputs": [],
      "name": "symbol",
      "outputs": [
        {
          "internalType": "string",
          "name": "",
          "type": "string"
        }
      ],
      "stateMutability": "view",
      "type": "function"
    },
    {
      "inputs": [
        {
          "internalType": "uint256",
          "name": "index",
          "type": "uint256"
        }
      ],
      "name": "tokenByIndex",
      "outputs": [
        {
          "internalType": "uint256",
          "name": "",
          "type": "uint256"
        }
      ],
      "stateMutability": "view",
      "type": "function"
    },
    {
      "inputs": [
        {
          "internalType": "address",
          "name": "owner",
          "type": "address"
        },
        {
          "internalType": "uint256",
          "name": "index",
          "type": "uint256"
        }
      ],
      "name": "tokenOfOwnerByIndex",
      "outputs": [
        {
          "internalType": "uint256",
          "name": "",
          "type": "uint256"
        }
      ],
      "stateMutability": "view",
      "type": "function"
    },
    {
      "inputs": [
        {
          "internalType": "uint256",
          "name": "tokenId",
          "type": "uint256"
        }
      ],
      "name": "tokenURI",
      "outputs": [
        {
          "internalType": "string",
          "name": "",
          "type": "string"
        }
      ],
      "stateMutability": "view",
      "type": "function"
    },
    {
      "inputs": [],
      "name": "totalSupply",
      "outputs": [
        {
          "internalType": "uint256",
          "name": "",
          "type": "uint256"
        }
      ],
      "stateMutability": "view",
      "type": "function"
    },
    {
      "inputs": [
        {
          "internalType": "address",
          "name": "from",
          "type": "address"
        },
        {
          "internalType": "address",
          "name": "to",
          "type": "address"
        },
        {
          "internalType": "uint256",
          "name": "tokenId",
          "type": "uint256"
        }
      ],
      "name": "transferFrom",
      "outputs": [],
      "stateMutability": "nonpayable",
      "type": "function"
    },
    {
      "inputs": [
        {
          "internalType": "address",
          "name": "newOwner",
          "type": "address"
        }
      ],
      "name": "transferOwnership",
      "outputs": [],
      "stateMutability": "nonpayable",
      "type": "function"
    }
  ],
  "bytecode": "0x60806040523480156200001157600080fd5b50336040518060400160405280600881526020017f4e46544469706c6f0000000000000000000000000000000000000000000000008152506040518060400160405280600481526020017f444e465400000000000000000000000000000000000000000000000000000000815250816000908162000090919062000472565b508060019081620000a2919062000472565b505050600073ffffffffffffffffffffffffffffffffffffffff168173ffffffffffffffffffffffffffffffffffffffff16036200011a5760006040517f1e4fbdf70000000000000000000000000000000000000000000000000000000081526004016200011191906200059e565b60405180910390fd5b6200012b816200013260201b60201c565b50620005bb565b6000600b60009054906101000a900473ffffffffffffffffffffffffffffffffffffffff16905081600b60006101000a81548173ffffffffffffffffffffffffffffffffffffffff021916908373ffffffffffffffffffffffffffffffffffffffff1602179055508173ffffffffffffffffffffffffffffffffffffffff168173ffffffffffffffffffffffffffffffffffffffff167f8be0079c531659141344cd1fd0a4f28419497f9722a3daafe3b4186f6b6457e060405160405180910390a35050565b600081519050919050565b7f4e487b7100000000000000000000000000000000000000000000000000000000600052604160045260246000fd5b7f4e487b7100000000000000000000000000000000000000000000000000000000600052602260045260246000fd5b600060028204905060018216806200027a57607f821691505b60208210810362000290576200028f62000232565b5b50919050565b60008190508160005260206000209050919050565b60006020601f8301049050919050565b600082821b905092915050565b600060088302620002fa7fffffffffffffffffffffffffffffffffffffffffffffffffffffffffffffffff82620002bb565b620003068683620002bb565b95508019841693508086168417925050509392505050565b6000819050919050565b6000819050919050565b6000620003536200034d62000347846200031e565b62000328565b6200031e565b9050919050565b6000819050919050565b6200036f8362000332565b620003876200037e826200035a565b848454620002c8565b825550505050565b600090565b6200039e6200038f565b620003ab81848462000364565b505050565b5b81811015620003d357620003c760008262000394565b600181019050620003b1565b5050565b601f8211156200042257620003ec8162000296565b620003f784620002ab565b8101602085101562000407578190505b6200041f6200041685620002ab565b830182620003b0565b50505b505050565b600082821c905092915050565b6000620004476000198460080262000427565b1980831691505092915050565b600062000462838362000434565b9150826002028217905092915050565b6200047d82620001f8565b67ffffffffffffffff81111562000499576200049862000203565b5b620004a5825462000261565b620004b2828285620003d7565b600060209050601f831160018114620004ea5760008415620004d5578287015190505b620004e1858262000454565b86555062000551565b601f198416620004fa8662000296565b60005b828110156200052457848901518255600182019150602085019450602081019050620004fd565b8683101562000544578489015162000540601f89168262000434565b8355505b6001600288020188555050505b505050505050565b600073ffffffffffffffffffffffffffffffffffffffff82169050919050565b6000620005868262000559565b9050919050565b620005988162000579565b82525050565b6000602082019050620005b560008301846200058d565b92915050565b612d2480620005cb6000396000f3fe608060405234801561001057600080fd5b506004361061012c5760003560e01c8063695850fb116100ad578063a22cb46511610071578063a22cb46514610357578063b88d4fde14610373578063c87b56dd1461038f578063e985e9c5146103bf578063f2fde38b146103ef5761012c565b8063695850fb146102b157806370a08231146102e1578063715018a6146103115780638da5cb5b1461031b57806395d89b41146103395761012c565b806323b872dd116100f457806323b872dd146101e95780632f745c591461020557806342842e0e146102355780634f6ccce7146102515780636352211e146102815761012c565b806301ffc9a71461013157806306fdde0314610161578063081812fc1461017f578063095ea7b3146101af57806318160ddd146101cb575b600080fd5b61014b600480360381019061014691906120fd565b61040b565b6040516101589190612145565b60405180910390f35b61016961041d565b60405161017691906121f0565b60405180910390f35b61019960048036038101906101949190612248565b6104af565b6040516101a691906122b6565b60405180910390f35b6101c960048036038101906101c491906122fd565b6104cb565b005b6101d36104e1565b6040516101e0919061234c565b60405180910390f35b61020360048036038101906101fe9190612367565b6104ee565b005b61021f600480360381019061021a91906122fd565b6105f0565b60405161022c919061234c565b60405180910390f35b61024f600480360381019061024a9190612367565b610699565b005b61026b60048036038101906102669190612248565b6106b9565b604051610278919061234c565b60405180910390f35b61029b60048036038101906102969190612248565b61072f565b6040516102a891906122b6565b60405180910390f35b6102cb60048036038101906102c691906124ef565b610741565b6040516102d8919061234c565b60405180910390f35b6102fb60048036038101906102f69190612538565b61077e565b604051610308919061234c565b60405180910390f35b610319610838565b005b61032361084c565b60405161033091906122b6565b60405180910390f35b610341610876565b60405161034e91906121f0565b60405180910390f35b610371600480360381019061036c9190612591565b610908565b005b61038d60048036038101906103889190612672565b61091e565b005b6103a960048036038101906103a49190612248565b610943565b6040516103b691906121f0565b60405180910390f35b6103d960048036038101906103d491906126f5565b610955565b6040516103e69190612145565b60405180910390f35b61040960048036038101906104049190612538565b6109e9565b005b600061041682610a6f565b9050919050565b60606000805461042c90612764565b80601f016020809104026020016040519081016040528092919081815260200182805461045890612764565b80156104a55780601f1061047a576101008083540402835291602001916104a5565b820191906000526020600020905b81548152906001019060200180831161048857829003601f168201915b5050505050905090565b60006104ba82610ad0565b506104c482610b58565b9050919050565b6104dd82826104d8610b95565b610b9d565b5050565b6000600880549050905090565b600073ffffffffffffffffffffffffffffffffffffffff168273ffffffffffffffffffffffffffffffffffffffff16036105605760006040517f64a0ae9200000000000000000000000000000000000000000000000000000000815260040161055791906122b6565b60405180910390fd5b6000610574838361056f610b95565b610baf565b90508373ffffffffffffffffffffffffffffffffffffffff168173ffffffffffffffffffffffffffffffffffffffff16146105ea578382826040517f64283d7b0000000000000000000000000000000000000000000000000000000081526004016105e193929190612795565b60405180910390fd5b50505050565b60006105fb8361077e565b82106106405782826040517fa57d13dc0000000000000000000000000000000000000000000000000000000081526004016106379291906127cc565b60405180910390fd5b600660008473ffffffffffffffffffffffffffffffffffffffff1673ffffffffffffffffffffffffffffffffffffffff168152602001908152602001600020600083815260200190815260200160002054905092915050565b6106b48383836040518060200160405280600081525061091e565b505050565b60006106c36104e1565b8210610709576000826040517fa57d13dc0000000000000000000000000000000000000000000000000000000081526004016107009291906127cc565b60405180910390fd5b6008828154811061071d5761071c6127f5565b5b90600052602060002001549050919050565b600061073a82610ad0565b9050919050565b600080600c549050600c600081548092919061075c90612853565b919050555061076b3382610bc5565b6107758184610be3565b80915050919050565b60008073ffffffffffffffffffffffffffffffffffffffff168273ffffffffffffffffffffffffffffffffffffffff16036107f15760006040517f89c62b640000000000000000000000000000000000000000000000000000000081526004016107e891906122b6565b60405180910390fd5b600360008373ffffffffffffffffffffffffffffffffffffffff1673ffffffffffffffffffffffffffffffffffffffff168152602001908152602001600020549050919050565b610840610c3f565b61084a6000610cc6565b565b6000600b60009054906101000a900473ffffffffffffffffffffffffffffffffffffffff16905090565b60606001805461088590612764565b80601f01602080910402602001604051908101604052809291908181526020018280546108b190612764565b80156108fe5780601f106108d3576101008083540402835291602001916108fe565b820191906000526020600020905b8154815290600101906020018083116108e157829003601f168201915b5050505050905090565b61091a610913610b95565b8383610d8c565b5050565b6109298484846104ee565b61093d610934610b95565b85858585610efb565b50505050565b606061094e826110ac565b9050919050565b6000600560008473ffffffffffffffffffffffffffffffffffffffff1673ffffffffffffffffffffffffffffffffffffffff16815260200190815260200160002060008373ffffffffffffffffffffffffffffffffffffffff1673ffffffffffffffffffffffffffffffffffffffff16815260200190815260200160002060009054906101000a900460ff16905092915050565b6109f1610c3f565b600073ffffffffffffffffffffffffffffffffffffffff168173ffffffffffffffffffffffffffffffffffffffff1603610a635760006040517f1e4fbdf7000000000000000000000000000000000000000000000000000000008152600401610a5a91906122b6565b60405180910390fd5b610a6c81610cc6565b50565b6000634906490660e01b7bffffffffffffffffffffffffffffffffffffffffffffffffffffffff1916827bffffffffffffffffffffffffffffffffffffffffffffffffffffffff19161480610ac95750610ac8826111bf565b5b9050919050565b600080610adc83611239565b9050600073ffffffffffffffffffffffffffffffffffffffff168173ffffffffffffffffffffffffffffffffffffffff1603610b4f57826040517f7e273289000000000000000000000000000000000000000000000000000000008152600401610b46919061234c565b60405180910390fd5b80915050919050565b60006004600083815260200190815260200160002060009054906101000a900473ffffffffffffffffffffffffffffffffffffffff169050919050565b600033905090565b610baa8383836001611276565b505050565b6000610bbc84848461143b565b90509392505050565b610bdf828260405180602001604052806000815250611558565b5050565b80600a60008481526020019081526020016000209081610c039190612a47565b507ff8e1a15aba9398e019f0b49df1a4fde98ee17ae345cb5f6b5e2c27f5033e8ce782604051610c33919061234c565b60405180910390a15050565b610c47610b95565b73ffffffffffffffffffffffffffffffffffffffff16610c6561084c565b73ffffffffffffffffffffffffffffffffffffffff1614610cc457610c88610b95565b6040517f118cdaa7000000000000000000000000000000000000000000000000000000008152600401610cbb91906122b6565b60405180910390fd5b565b6000600b60009054906101000a900473ffffffffffffffffffffffffffffffffffffffff16905081600b60006101000a81548173ffffffffffffffffffffffffffffffffffffffff021916908373ffffffffffffffffffffffffffffffffffffffff1602179055508173ffffffffffffffffffffffffffffffffffffffff168173ffffffffffffffffffffffffffffffffffffffff167f8be0079c531659141344cd1fd0a4f28419497f9722a3daafe3b4186f6b6457e060405160405180910390a35050565b600073ffffffffffffffffffffffffffffffffffffffff168273ffffffffffffffffffffffffffffffffffffffff1603610dfd57816040517f5b08ba18000000000000000000000000000000000000000000000000000000008152600401610df491906122b6565b60405180910390fd5b80600560008573ffffffffffffffffffffffffffffffffffffffff1673ffffffffffffffffffffffffffffffffffffffff16815260200190815260200160002060008473ffffffffffffffffffffffffffffffffffffffff1673ffffffffffffffffffffffffffffffffffffffff16815260200190815260200160002060006101000a81548160ff0219169083151502179055508173ffffffffffffffffffffffffffffffffffffffff168373ffffffffffffffffffffffffffffffffffffffff167f17307eab39ab6107e8899845ad3d59bd9653f200f220920489ca2b5937696c3183604051610eee9190612145565b60405180910390a3505050565b60008373ffffffffffffffffffffffffffffffffffffffff163b11156110a5578273ffffffffffffffffffffffffffffffffffffffff1663150b7a02868685856040518563ffffffff1660e01b8152600401610f5a9493929190612b6e565b6020604051808303816000875af1925050508015610f9657506040513d601f19601f82011682018060405250810190610f939190612bcf565b60015b61101a573d8060008114610fc6576040519150601f19603f3d011682016040523d82523d6000602084013e610fcb565b606091505b50600081510361101257836040517f64a0ae9200000000000000000000000000000000000000000000000000000000815260040161100991906122b6565b60405180910390fd5b805181602001fd5b63150b7a0260e01b7bffffffffffffffffffffffffffffffffffffffffffffffffffffffff1916817bffffffffffffffffffffffffffffffffffffffffffffffffffffffff1916146110a357836040517f64a0ae9200000000000000000000000000000000000000000000000000000000815260040161109a91906122b6565b60405180910390fd5b505b5050505050565b60606110b782610ad0565b506000600a600084815260200190815260200160002080546110d890612764565b80601f016020809104026020016040519081016040528092919081815260200182805461110490612764565b80156111515780601f1061112657610100808354040283529160200191611151565b820191906000526020600020905b81548152906001019060200180831161113457829003601f168201915b50505050509050600061116261157c565b905060008151036111775781925050506111ba565b6000825111156111ac578082604051602001611194929190612c38565b604051602081830303815290604052925050506111ba565b6111b584611593565b925050505b919050565b60007f780e9d63000000000000000000000000000000000000000000000000000000007bffffffffffffffffffffffffffffffffffffffffffffffffffffffff1916827bffffffffffffffffffffffffffffffffffffffffffffffffffffffff191614806112325750611231826115fc565b5b9050919050565b60006002600083815260200190815260200160002060009054906101000a900473ffffffffffffffffffffffffffffffffffffffff169050919050565b80806112af5750600073ffffffffffffffffffffffffffffffffffffffff168273ffffffffffffffffffffffffffffffffffffffff1614155b156113e35760006112bf84610ad0565b9050600073ffffffffffffffffffffffffffffffffffffffff168373ffffffffffffffffffffffffffffffffffffffff161415801561132a57508273ffffffffffffffffffffffffffffffffffffffff168173ffffffffffffffffffffffffffffffffffffffff1614155b801561133d575061133b8184610955565b155b1561137f57826040517fa9fbf51f00000000000000000000000000000000000000000000000000000000815260040161137691906122b6565b60405180910390fd5b81156113e157838573ffffffffffffffffffffffffffffffffffffffff168273ffffffffffffffffffffffffffffffffffffffff167f8c5be1e5ebec7d5bd14f71427d1e84f3dd0314c0f7b2291e5b200ac8c7c3b92560405160405180910390a45b505b836004600085815260200190815260200160002060006101000a81548173ffffffffffffffffffffffffffffffffffffffff021916908373ffffffffffffffffffffffffffffffffffffffff16021790555050505050565b6000806114498585856116de565b9050600073ffffffffffffffffffffffffffffffffffffffff168173ffffffffffffffffffffffffffffffffffffffff160361148d57611488846118f8565b6114cc565b8473ffffffffffffffffffffffffffffffffffffffff168173ffffffffffffffffffffffffffffffffffffffff16146114cb576114ca8185611941565b5b5b600073ffffffffffffffffffffffffffffffffffffffff168573ffffffffffffffffffffffffffffffffffffffff160361150e5761150984611a2c565b61154d565b8473ffffffffffffffffffffffffffffffffffffffff168173ffffffffffffffffffffffffffffffffffffffff161461154c5761154b8585611afd565b5b5b809150509392505050565b6115628383611b88565b61157761156d610b95565b6000858585610efb565b505050565b606060405180602001604052806000815250905090565b606061159e82610ad0565b5060006115a961157c565b905060008151116115c957604051806020016040528060008152506115f4565b806115d384611c81565b6040516020016115e4929190612c38565b6040516020818303038152906040525b915050919050565b60007f80ac58cd000000000000000000000000000000000000000000000000000000007bffffffffffffffffffffffffffffffffffffffffffffffffffffffff1916827bffffffffffffffffffffffffffffffffffffffffffffffffffffffff191614806116c757507f5b5e139f000000000000000000000000000000000000000000000000000000007bffffffffffffffffffffffffffffffffffffffffffffffffffffffff1916827bffffffffffffffffffffffffffffffffffffffffffffffffffffffff1916145b806116d757506116d682611d4f565b5b9050919050565b6000806116ea84611239565b9050600073ffffffffffffffffffffffffffffffffffffffff168373ffffffffffffffffffffffffffffffffffffffff161461172c5761172b818486611db9565b5b600073ffffffffffffffffffffffffffffffffffffffff168173ffffffffffffffffffffffffffffffffffffffff16146117bd5761176e600085600080611276565b6001600360008373ffffffffffffffffffffffffffffffffffffffff1673ffffffffffffffffffffffffffffffffffffffff168152602001908152602001600020600082825403925050819055505b600073ffffffffffffffffffffffffffffffffffffffff168573ffffffffffffffffffffffffffffffffffffffff1614611840576001600360008773ffffffffffffffffffffffffffffffffffffffff1673ffffffffffffffffffffffffffffffffffffffff168152602001908152602001600020600082825401925050819055505b846002600086815260200190815260200160002060006101000a81548173ffffffffffffffffffffffffffffffffffffffff021916908373ffffffffffffffffffffffffffffffffffffffff160217905550838573ffffffffffffffffffffffffffffffffffffffff168273ffffffffffffffffffffffffffffffffffffffff167fddf252ad1be2c89b69c2b068fc378daa952ba7f163c4a11628f55a4df523b3ef60405160405180910390a4809150509392505050565b6008805490506009600083815260200190815260200160002081905550600881908060018154018082558091505060019003906000526020600020016000909190919091505550565b600061194c8361077e565b90506000600760008481526020019081526020016000205490506000600660008673ffffffffffffffffffffffffffffffffffffffff1673ffffffffffffffffffffffffffffffffffffffff16815260200190815260200160002090508282146119f85760008160008581526020019081526020016000205490508082600085815260200190815260200160002081905550826007600083815260200190815260200160002081905550505b6007600085815260200190815260200160002060009055806000848152602001908152602001600020600090555050505050565b60006001600880549050611a409190612c5c565b9050600060096000848152602001908152602001600020549050600060088381548110611a7057611a6f6127f5565b5b906000526020600020015490508060088381548110611a9257611a916127f5565b5b906000526020600020018190555081600960008381526020019081526020016000208190555060096000858152602001908152602001600020600090556008805480611ae157611ae0612c90565b5b6001900381819060005260206000200160009055905550505050565b60006001611b0a8461077e565b611b149190612c5c565b905081600660008573ffffffffffffffffffffffffffffffffffffffff1673ffffffffffffffffffffffffffffffffffffffff168152602001908152602001600020600083815260200190815260200160002081905550806007600084815260200190815260200160002081905550505050565b600073ffffffffffffffffffffffffffffffffffffffff168273ffffffffffffffffffffffffffffffffffffffff1603611bfa5760006040517f64a0ae92000000000000000000000000000000000000000000000000000000008152600401611bf191906122b6565b60405180910390fd5b6000611c0883836000610baf565b9050600073ffffffffffffffffffffffffffffffffffffffff168173ffffffffffffffffffffffffffffffffffffffff1614611c7c5760006040517f73c6ac6e000000000000000000000000000000000000000000000000000000008152600401611c7391906122b6565b60405180910390fd5b505050565b606060006001611c9084611e7d565b01905060008167ffffffffffffffff811115611caf57611cae6123c4565b5b6040519080825280601f01601f191660200182016040528015611ce15781602001600182028036833780820191505090505b509050600082602001820190505b600115611d44578080600190039150507f3031323334353637383961626364656600000000000000000000000000000000600a86061a8153600a8581611d3857611d37612cbf565b5b04945060008503611cef575b819350505050919050565b60007f01ffc9a7000000000000000000000000000000000000000000000000000000007bffffffffffffffffffffffffffffffffffffffffffffffffffffffff1916827bffffffffffffffffffffffffffffffffffffffffffffffffffffffff1916149050919050565b611dc4838383611fd0565b611e7857600073ffffffffffffffffffffffffffffffffffffffff168373ffffffffffffffffffffffffffffffffffffffff1603611e3957806040517f7e273289000000000000000000000000000000000000000000000000000000008152600401611e30919061234c565b60405180910390fd5b81816040517f177e802f000000000000000000000000000000000000000000000000000000008152600401611e6f9291906127cc565b60405180910390fd5b505050565b600080600090507a184f03e93ff9f4daa797ed6e38ed64bf6a1f0100000000000000008310611edb577a184f03e93ff9f4daa797ed6e38ed64bf6a1f0100000000000000008381611ed157611ed0612cbf565b5b0492506040810190505b6d04ee2d6d415b85acef81000000008310611f18576d04ee2d6d415b85acef81000000008381611f0e57611f0d612cbf565b5b0492506020810190505b662386f26fc100008310611f4757662386f26fc100008381611f3d57611f3c612cbf565b5b0492506010810190505b6305f5e1008310611f70576305f5e1008381611f6657611f65612cbf565b5b0492506008810190505b6127108310611f95576127108381611f8b57611f8a612cbf565b5b0492506004810190505b60648310611fb85760648381611fae57611fad612cbf565b5b0492506002810190505b600a8310611fc7576001810190505b80915050919050565b60008073ffffffffffffffffffffffffffffffffffffffff168373ffffffffffffffffffffffffffffffffffffffff161415801561208857508273ffffffffffffffffffffffffffffffffffffffff168473ffffffffffffffffffffffffffffffffffffffff16148061204957506120488484610955565b5b8061208757508273ffffffffffffffffffffffffffffffffffffffff1661206f83610b58565b73ffffffffffffffffffffffffffffffffffffffff16145b5b90509392505050565b6000604051905090565b600080fd5b600080fd5b60007fffffffff0000000000000000000000000000000000000000000000000000000082169050919050565b6120da816120a5565b81146120e557600080fd5b50565b6000813590506120f7816120d1565b92915050565b6000602082840312156121135761211261209b565b5b6000612121848285016120e8565b91505092915050565b60008115159050919050565b61213f8161212a565b82525050565b600060208201905061215a6000830184612136565b92915050565b600081519050919050565b600082825260208201905092915050565b60005b8381101561219a57808201518184015260208101905061217f565b60008484015250505050565b6000601f19601f8301169050919050565b60006121c282612160565b6121cc818561216b565b93506121dc81856020860161217c565b6121e5816121a6565b840191505092915050565b6000602082019050818103600083015261220a81846121b7565b905092915050565b6000819050919050565b61222581612212565b811461223057600080fd5b50565b6000813590506122428161221c565b92915050565b60006020828403121561225e5761225d61209b565b5b600061226c84828501612233565b91505092915050565b600073ffffffffffffffffffffffffffffffffffffffff82169050919050565b60006122a082612275565b9050919050565b6122b081612295565b82525050565b60006020820190506122cb60008301846122a7565b92915050565b6122da81612295565b81146122e557600080fd5b50565b6000813590506122f7816122d1565b92915050565b600080604083850312156123145761231361209b565b5b6000612322858286016122e8565b925050602061233385828601612233565b9150509250929050565b61234681612212565b82525050565b6000602082019050612361600083018461233d565b92915050565b6000806000606084860312156123805761237f61209b565b5b600061238e868287016122e8565b935050602061239f868287016122e8565b92505060406123b086828701612233565b9150509250925092565b600080fd5b600080fd5b7f4e487b7100000000000000000000000000000000000000000000000000000000600052604160045260246000fd5b6123fc826121a6565b810181811067ffffffffffffffff8211171561241b5761241a6123c4565b5b80604052505050565b600061242e612091565b905061243a82826123f3565b919050565b600067ffffffffffffffff82111561245a576124596123c4565b5b612463826121a6565b9050602081019050919050565b82818337600083830152505050565b600061249261248d8461243f565b612424565b9050828152602081018484840111156124ae576124ad6123bf565b5b6124b9848285612470565b509392505050565b600082601f8301126124d6576124d56123ba565b5b81356124e684826020860161247f565b91505092915050565b6000602082840312156125055761250461209b565b5b600082013567ffffffffffffffff811115612523576125226120a0565b5b61252f848285016124c1565b91505092915050565b60006020828403121561254e5761254d61209b565b5b600061255c848285016122e8565b91505092915050565b61256e8161212a565b811461257957600080fd5b50565b60008135905061258b81612565565b92915050565b600080604083850312156125a8576125a761209b565b5b60006125b6858286016122e8565b92505060206125c78582860161257c565b9150509250929050565b600067ffffffffffffffff8211156125ec576125eb6123c4565b5b6125f5826121a6565b9050602081019050919050565b6000612615612610846125d1565b612424565b905082815260208101848484011115612631576126306123bf565b5b61263c848285612470565b509392505050565b600082601f830112612659576126586123ba565b5b8135612669848260208601612602565b91505092915050565b6000806000806080858703121561268c5761268b61209b565b5b600061269a878288016122e8565b94505060206126ab878288016122e8565b93505060406126bc87828801612233565b925050606085013567ffffffffffffffff8111156126dd576126dc6120a0565b5b6126e987828801612644565b91505092959194509250565b6000806040838503121561270c5761270b61209b565b5b600061271a858286016122e8565b925050602061272b858286016122e8565b9150509250929050565b7f4e487b7100000000000000000000000000000000000000000000000000000000600052602260045260246000fd5b6000600282049050600182168061277c57607f821691505b60208210810361278f5761278e612735565b5b50919050565b60006060820190506127aa60008301866122a7565b6127b7602083018561233d565b6127c460408301846122a7565b949350505050565b60006040820190506127e160008301856122a7565b6127ee602083018461233d565b9392505050565b7f4e487b7100000000000000000000000000000000000000000000000000000000600052603260045260246000fd5b7f4e487b7100000000000000000000000000000000000000000000000000000000600052601160045260246000fd5b600061285e82612212565b91507fffffffffffffffffffffffffffffffffffffffffffffffffffffffffffffffff82036128905761288f612824565b5b600182019050919050565b60008190508160005260206000209050919050565b60006020601f8301049050919050565b600082821b905092915050565b6000600883026128fd7fffffffffffffffffffffffffffffffffffffffffffffffffffffffffffffffff826128c0565b61290786836128c0565b95508019841693508086168417925050509392505050565b6000819050919050565b600061294461293f61293a84612212565b61291f565b612212565b9050919050565b6000819050919050565b61295e83612929565b61297261296a8261294b565b8484546128cd565b825550505050565b600090565b61298761297a565b612992818484612955565b505050565b5b818110156129b6576129ab60008261297f565b600181019050612998565b5050565b601f8211156129fb576129cc8161289b565b6129d5846128b0565b810160208510156129e4578190505b6129f86129f0856128b0565b830182612997565b50505b505050565b600082821c905092915050565b6000612a1e60001984600802612a00565b1980831691505092915050565b6000612a378383612a0d565b9150826002028217905092915050565b612a5082612160565b67ffffffffffffffff811115612a6957612a686123c4565b5b612a738254612764565b612a7e8282856129ba565b600060209050601f831160018114612ab15760008415612a9f578287015190505b612aa98582612a2b565b865550612b11565b601f198416612abf8661289b565b60005b82811015612ae757848901518255600182019150602085019450602081019050612ac2565b86831015612b045784890151612b00601f891682612a0d565b8355505b6001600288020188555050505b505050505050565b600081519050919050565b600082825260208201905092915050565b6000612b4082612b19565b612b4a8185612b24565b9350612b5a81856020860161217c565b612b63816121a6565b840191505092915050565b6000608082019050612b8360008301876122a7565b612b9060208301866122a7565b612b9d604083018561233d565b8181036060830152612baf8184612b35565b905095945050505050565b600081519050612bc9816120d1565b92915050565b600060208284031215612be557612be461209b565b5b6000612bf384828501612bba565b91505092915050565b600081905092915050565b6000612c1282612160565b612c1c8185612bfc565b9350612c2c81856020860161217c565b80840191505092915050565b6000612c448285612c07565b9150612c508284612c07565b91508190509392505050565b6000612c6782612212565b9150612c7283612212565b9250828203905081811115612c8a57612c89612824565b5b92915050565b7f4e487b7100000000000000000000000000000000000000000000000000000000600052603160045260246000fd5b7f4e487b7100000000000000000000000000000000000000000000000000000000600052601260045260246000fdfea2646970667358221220b27c93851ce1531776dad9883769e87bd6f071929c3383e0c7d204ee3d28f67b64736f6c63430008140033",
  "linkReferences": {},
  "deployedLinkReferences": {}
}