{
  "_format": "hh-sol-artifact-1",
  "contractName": "MiNFT",
  "sourceName": "contracts/MiNFT.sol",
  "abi": [
    {
      "inputs": [],
      "stateMutability": "nonpayable",
      "type": "constructor"
    },
    {
      "inputs": [
        {
          "internalType": "address",
          "name": "sender",
          "type": "address"
        },
        {
          "internalType": "uint256",
          "name": "tokenId",
          "type": "uint256"
        },
        {
          "internalType": "address",
          "name": "owner",
          "type": "address"
        }
      ],
      "name": "ERC721IncorrectOwner",
      "type": "error"
    },
    {
      "inputs": [
        {
          "internalType": "address",
          "name": "operator",
          "type": "address"
        },
        {
          "internalType": "uint256",
          "name": "tokenId",
          "type": "uint256"
        }
      ],
      "name": "ERC721InsufficientApproval",
      "type": "error"
    },
    {
      "inputs": [
        {
          "internalType": "address",
          "name": "approver",
          "type": "address"
        }
      ],
      "name": "ERC721InvalidApprover",
      "type": "error"
    },
    {
      "inputs": [
        {
          "internalType": "address",
          "name": "operator",
          "type": "address"
        }
      ],
      "name": "ERC721InvalidOperator",
      "type": "error"
    },
    {
      "inputs": [
        {
          "internalType": "address",
          "name": "owner",
          "type": "address"
        }
      ],
      "name": "ERC721InvalidOwner",
      "type": "error"
    },
    {
      "inputs": [
        {
          "internalType": "address",
          "name": "receiver",
          "type": "address"
        }
      ],
      "name": "ERC721InvalidReceiver",
      "type": "error"
    },
    {
      "inputs": [
        {
          "internalType": "address",
          "name": "sender",
          "type": "address"
        }
      ],
      "name": "ERC721InvalidSender",
      "type": "error"
    },
    {
      "inputs": [
        {
          "internalType": "uint256",
          "name": "tokenId",
          "type": "uint256"
        }
      ],
      "name": "ERC721NonexistentToken",
      "type": "error"
    },
    {
      "anonymous": false,
      "inputs": [
        {
          "indexed": true,
          "internalType": "address",
          "name": "owner",
          "type": "address"
        },
        {
          "indexed": true,
          "internalType": "address",
          "name": "approved",
          "type": "address"
        },
        {
          "indexed": true,
          "internalType": "uint256",
          "name": "tokenId",
          "type": "uint256"
        }
      ],
      "name": "Approval",
      "type": "event"
    },
    {
      "anonymous": false,
      "inputs": [
        {
          "indexed": true,
          "internalType": "address",
          "name": "owner",
          "type": "address"
        },
        {
          "indexed": true,
          "internalType": "address",
          "name": "operator",
          "type": "address"
        },
        {
          "indexed": false,
          "internalType": "bool",
          "name": "approved",
          "type": "bool"
        }
      ],
      "name": "ApprovalForAll",
      "type": "event"
    },
    {
      "anonymous": false,
      "inputs": [
        {
          "indexed": true,
          "internalType": "address",
          "name": "from",
          "type": "address"
        },
        {
          "indexed": true,
          "internalType": "address",
          "name": "to",
          "type": "address"
        },
        {
          "indexed": true,
          "internalType": "uint256",
          "name": "tokenId",
          "type": "uint256"
        }
      ],
      "name": "Transfer",
      "type": "event"
    },
    {
      "inputs": [
        {
          "internalType": "address",
          "name": "to",
          "type": "address"
        },
        {
          "internalType": "uint256",
          "name": "tokenId",
          "type": "uint256"
        }
      ],
      "name": "approve",
      "outputs": [],
      "stateMutability": "nonpayable",
      "type": "function"
    },
    {
      "inputs": [
        {
          "internalType": "address",
          "name": "owner",
          "type": "address"
        }
      ],
      "name": "balanceOf",
      "outputs": [
        {
          "internalType": "uint256",
          "name": "",
          "type": "uint256"
        }
      ],
      "stateMutability": "view",
      "type": "function"
    },
    {
      "inputs": [
        {
          "internalType": "uint256",
          "name": "tokenId",
          "type": "uint256"
        }
      ],
      "name": "getApproved",
      "outputs": [
        {
          "internalType": "address",
          "name": "",
          "type": "address"
        }
      ],
      "stateMutability": "view",
      "type": "function"
    },
    {
      "inputs": [
        {
          "internalType": "address",
          "name": "paraQuien",
          "type": "address"
        },
        {
          "internalType": "string",
          "name": "url",
          "type": "string"
        }
      ],
      "name": "hacerNFT",
      "outputs": [
        {
          "internalType": "uint256",
          "name": "",
          "type": "uint256"
        }
      ],
      "stateMutability": "nonpayable",
      "type": "function"
    },
    {
      "inputs": [
        {
          "internalType": "address",
          "name": "owner",
          "type": "address"
        },
        {
          "internalType": "address",
          "name": "operator",
          "type": "address"
        }
      ],
      "name": "isApprovedForAll",
      "outputs": [
        {
          "internalType": "bool",
          "name": "",
          "type": "bool"
        }
      ],
      "stateMutability": "view",
      "type": "function"
    },
    {
      "inputs": [],
      "name": "name",
      "outputs": [
        {
          "internalType": "string",
          "name": "",
          "type": "string"
        }
      ],
      "stateMutability": "view",
      "type": "function"
    },
    {
      "inputs": [
        {
          "internalType": "uint256",
          "name": "idNFT",
          "type": "uint256"
        }
      ],
      "name": "obtenerURL",
      "outputs": [
        {
          "internalType": "string",
          "name": "",
          "type": "string"
        }
      ],
      "stateMutability": "view",
      "type": "function"
    },
    {
      "inputs": [
        {
          "internalType": "uint256",
          "name": "tokenId",
          "type": "uint256"
        }
      ],
      "name": "ownerOf",
      "outputs": [
        {
          "internalType": "address",
          "name": "",
          "type": "address"
        }
      ],
      "stateMutability": "view",
      "type": "function"
    },
    {
      "inputs": [
        {
          "internalType": "address",
          "name": "from",
          "type": "address"
        },
        {
          "internalType": "address",
          "name": "to",
          "type": "address"
        },
        {
          "internalType": "uint256",
          "name": "tokenId",
          "type": "uint256"
        }
      ],
      "name": "safeTransferFrom",
      "outputs": [],
      "stateMutability": "nonpayable",
      "type": "function"
    },
    {
      "inputs": [
        {
          "internalType": "address",
          "name": "from",
          "type": "address"
        },
        {
          "internalType": "address",
          "name": "to",
          "type": "address"
        },
        {
          "internalType": "uint256",
          "name": "tokenId",
          "type": "uint256"
        },
        {
          "internalType": "bytes",
          "name": "data",
          "type": "bytes"
        }
      ],
      "name": "safeTransferFrom",
      "outputs": [],
      "stateMutability": "nonpayable",
      "type": "function"
    },
    {
      "inputs": [
        {
          "internalType": "address",
          "name": "operator",
          "type": "address"
        },
        {
          "internalType": "bool",
          "name": "approved",
          "type": "bool"
        }
      ],
      "name": "setApprovalForAll",
      "outputs": [],
      "stateMutability": "nonpayable",
      "type": "function"
    },
    {
      "inputs": [
        {
          "internalType": "bytes4",
          "name": "interfaceId",
          "type": "bytes4"
        }
      ],
      "name": "supportsInterface",
      "outputs": [
        {
          "internalType": "bool",
          "name": "",
          "type": "bool"
        }
      ],
      "stateMutability": "view",
      "type": "function"
    },
    {
      "inputs": [],
      "name": "symbol",
      "outputs": [
        {
          "internalType": "string",
          "name": "",
          "type": "string"
        }
      ],
      "stateMutability": "view",
      "type": "function"
    },
    {
      "inputs": [
        {
          "internalType": "uint256",
          "name": "tokenId",
          "type": "uint256"
        }
      ],
      "name": "tokenURI",
      "outputs": [
        {
          "internalType": "string",
          "name": "",
          "type": "string"
        }
      ],
      "stateMutability": "view",
      "type": "function"
    },
    {
      "inputs": [
        {
          "internalType": "address",
          "name": "from",
          "type": "address"
        },
        {
          "internalType": "address",
          "name": "to",
          "type": "address"
        },
        {
          "internalType": "uint256",
          "name": "tokenId",
          "type": "uint256"
        }
      ],
      "name": "transferFrom",
      "outputs": [],
      "stateMutability": "nonpayable",
      "type": "function"
    }
  ],
  "bytecode": "0x608060405234801561001057600080fd5b506040518060400160405280600881526020017f4e46544469706c6f0000000000000000000000000000000000000000000000008152506040518060400160405280600481526020017f444e465400000000000000000000000000000000000000000000000000000000815250816000908161008c91906102fc565b50806001908161009c91906102fc565b50505060006006819055506103ce565b600081519050919050565b7f4e487b7100000000000000000000000000000000000000000000000000000000600052604160045260246000fd5b7f4e487b7100000000000000000000000000000000000000000000000000000000600052602260045260246000fd5b6000600282049050600182168061012d57607f821691505b6020821081036101405761013f6100e6565b5b50919050565b60008190508160005260206000209050919050565b60006020601f8301049050919050565b600082821b905092915050565b6000600883026101a87fffffffffffffffffffffffffffffffffffffffffffffffffffffffffffffffff8261016b565b6101b2868361016b565b95508019841693508086168417925050509392505050565b6000819050919050565b6000819050919050565b60006101f96101f46101ef846101ca565b6101d4565b6101ca565b9050919050565b6000819050919050565b610213836101de565b61022761021f82610200565b848454610178565b825550505050565b600090565b61023c61022f565b61024781848461020a565b505050565b5b8181101561026b57610260600082610234565b60018101905061024d565b5050565b601f8211156102b05761028181610146565b61028a8461015b565b81016020851015610299578190505b6102ad6102a58561015b565b83018261024c565b50505b505050565b600082821c905092915050565b60006102d3600019846008026102b5565b1980831691505092915050565b60006102ec83836102c2565b9150826002028217905092915050565b610305826100ac565b67ffffffffffffffff81111561031e5761031d6100b7565b5b6103288254610115565b61033382828561026f565b600060209050601f8311600181146103665760008415610354578287015190505b61035e85826102e0565b8655506103c6565b601f19841661037486610146565b60005b8281101561039c57848901518255600182019150602085019450602081019050610377565b868310156103b957848901516103b5601f8916826102c2565b8355505b6001600288020188555050505b505050505050565b6123c4806103dd6000396000f3fe608060405234801561001057600080fd5b50600436106100f55760003560e01c80636352211e11610097578063a22cb46511610066578063a22cb465146102aa578063b88d4fde146102c6578063c87b56dd146102e2578063e985e9c514610312576100f5565b80636352211e146101fc57806370a082311461022c5780638766c1f41461025c57806395d89b411461028c576100f5565b8063095ea7b3116100d3578063095ea7b31461017857806323b872dd1461019457806342842e0e146101b057806346965c01146101cc576100f5565b806301ffc9a7146100fa57806306fdde031461012a578063081812fc14610148575b600080fd5b610114600480360381019061010f91906117c4565b610342565b604051610121919061180c565b60405180910390f35b610132610424565b60405161013f91906118b7565b60405180910390f35b610162600480360381019061015d919061190f565b6104b6565b60405161016f919061197d565b60405180910390f35b610192600480360381019061018d91906119c4565b6104d2565b005b6101ae60048036038101906101a99190611a04565b6104e8565b005b6101ca60048036038101906101c59190611a04565b6105ea565b005b6101e660048036038101906101e1919061190f565b61060a565b6040516101f391906118b7565b60405180910390f35b6102166004803603810190610211919061190f565b610726565b604051610223919061197d565b60405180910390f35b61024660048036038101906102419190611a57565b610738565b6040516102539190611a93565b60405180910390f35b61027660048036038101906102719190611be3565b6107f2565b6040516102839190611a93565b60405180910390f35b61029461082e565b6040516102a191906118b7565b60405180910390f35b6102c460048036038101906102bf9190611c6b565b6108c0565b005b6102e060048036038101906102db9190611d4c565b6108d6565b005b6102fc60048036038101906102f7919061190f565b6108fb565b60405161030991906118b7565b60405180910390f35b61032c60048036038101906103279190611dcf565b610964565b604051610339919061180c565b60405180910390f35b60007f80ac58cd000000000000000000000000000000000000000000000000000000007bffffffffffffffffffffffffffffffffffffffffffffffffffffffff1916827bffffffffffffffffffffffffffffffffffffffffffffffffffffffff1916148061040d57507f5b5e139f000000000000000000000000000000000000000000000000000000007bffffffffffffffffffffffffffffffffffffffffffffffffffffffff1916827bffffffffffffffffffffffffffffffffffffffffffffffffffffffff1916145b8061041d575061041c826109f8565b5b9050919050565b60606000805461043390611e3e565b80601f016020809104026020016040519081016040528092919081815260200182805461045f90611e3e565b80156104ac5780601f10610481576101008083540402835291602001916104ac565b820191906000526020600020905b81548152906001019060200180831161048f57829003601f168201915b5050505050905090565b60006104c182610a62565b506104cb82610aea565b9050919050565b6104e482826104df610b27565b610b2f565b5050565b600073ffffffffffffffffffffffffffffffffffffffff168273ffffffffffffffffffffffffffffffffffffffff160361055a5760006040517f64a0ae92000000000000000000000000000000000000000000000000000000008152600401610551919061197d565b60405180910390fd5b600061056e8383610569610b27565b610b41565b90508373ffffffffffffffffffffffffffffffffffffffff168173ffffffffffffffffffffffffffffffffffffffff16146105e4578382826040517f64283d7b0000000000000000000000000000000000000000000000000000000081526004016105db93929190611e6f565b60405180910390fd5b50505050565b610605838383604051806020016040528060008152506108d6565b505050565b6060600073ffffffffffffffffffffffffffffffffffffffff1661062d83610d5b565b73ffffffffffffffffffffffffffffffffffffffff1603610683576040517f08c379a000000000000000000000000000000000000000000000000000000000815260040161067a90611ef2565b60405180910390fd5b6007600083815260200190815260200160002080546106a190611e3e565b80601f01602080910402602001604051908101604052809291908181526020018280546106cd90611e3e565b801561071a5780601f106106ef5761010080835404028352916020019161071a565b820191906000526020600020905b8154815290600101906020018083116106fd57829003601f168201915b50505050509050919050565b600061073182610a62565b9050919050565b60008073ffffffffffffffffffffffffffffffffffffffff168273ffffffffffffffffffffffffffffffffffffffff16036107ab5760006040517f89c62b640000000000000000000000000000000000000000000000000000000081526004016107a2919061197d565b60405180910390fd5b600360008373ffffffffffffffffffffffffffffffffffffffff1673ffffffffffffffffffffffffffffffffffffffff168152602001908152602001600020549050919050565b600060016006546108039190611f41565b6006819055506000600654905061081a8482610d98565b6108248184610e91565b8091505092915050565b60606001805461083d90611e3e565b80601f016020809104026020016040519081016040528092919081815260200182805461086990611e3e565b80156108b65780601f1061088b576101008083540402835291602001916108b6565b820191906000526020600020905b81548152906001019060200180831161089957829003601f168201915b5050505050905090565b6108d26108cb610b27565b8383610eb6565b5050565b6108e18484846104e8565b6108f56108ec610b27565b85858585611025565b50505050565b606061090682610a62565b5060006109116111d6565b90506000815111610931576040518060200160405280600081525061095c565b8061093b846111ed565b60405160200161094c929190611fb1565b6040516020818303038152906040525b915050919050565b6000600560008473ffffffffffffffffffffffffffffffffffffffff1673ffffffffffffffffffffffffffffffffffffffff16815260200190815260200160002060008373ffffffffffffffffffffffffffffffffffffffff1673ffffffffffffffffffffffffffffffffffffffff16815260200190815260200160002060009054906101000a900460ff16905092915050565b60007f01ffc9a7000000000000000000000000000000000000000000000000000000007bffffffffffffffffffffffffffffffffffffffffffffffffffffffff1916827bffffffffffffffffffffffffffffffffffffffffffffffffffffffff1916149050919050565b600080610a6e83610d5b565b9050600073ffffffffffffffffffffffffffffffffffffffff168173ffffffffffffffffffffffffffffffffffffffff1603610ae157826040517f7e273289000000000000000000000000000000000000000000000000000000008152600401610ad89190611a93565b60405180910390fd5b80915050919050565b60006004600083815260200190815260200160002060009054906101000a900473ffffffffffffffffffffffffffffffffffffffff169050919050565b600033905090565b610b3c83838360016112bb565b505050565b600080610b4d84610d5b565b9050600073ffffffffffffffffffffffffffffffffffffffff168373ffffffffffffffffffffffffffffffffffffffff1614610b8f57610b8e818486611480565b5b600073ffffffffffffffffffffffffffffffffffffffff168173ffffffffffffffffffffffffffffffffffffffff1614610c2057610bd16000856000806112bb565b6001600360008373ffffffffffffffffffffffffffffffffffffffff1673ffffffffffffffffffffffffffffffffffffffff168152602001908152602001600020600082825403925050819055505b600073ffffffffffffffffffffffffffffffffffffffff168573ffffffffffffffffffffffffffffffffffffffff1614610ca3576001600360008773ffffffffffffffffffffffffffffffffffffffff1673ffffffffffffffffffffffffffffffffffffffff168152602001908152602001600020600082825401925050819055505b846002600086815260200190815260200160002060006101000a81548173ffffffffffffffffffffffffffffffffffffffff021916908373ffffffffffffffffffffffffffffffffffffffff160217905550838573ffffffffffffffffffffffffffffffffffffffff168273ffffffffffffffffffffffffffffffffffffffff167fddf252ad1be2c89b69c2b068fc378daa952ba7f163c4a11628f55a4df523b3ef60405160405180910390a4809150509392505050565b60006002600083815260200190815260200160002060009054906101000a900473ffffffffffffffffffffffffffffffffffffffff169050919050565b600073ffffffffffffffffffffffffffffffffffffffff168273ffffffffffffffffffffffffffffffffffffffff1603610e0a5760006040517f64a0ae92000000000000000000000000000000000000000000000000000000008152600401610e01919061197d565b60405180910390fd5b6000610e1883836000610b41565b9050600073ffffffffffffffffffffffffffffffffffffffff168173ffffffffffffffffffffffffffffffffffffffff1614610e8c5760006040517f73c6ac6e000000000000000000000000000000000000000000000000000000008152600401610e83919061197d565b60405180910390fd5b505050565b80600760008481526020019081526020016000209081610eb19190612181565b505050565b600073ffffffffffffffffffffffffffffffffffffffff168273ffffffffffffffffffffffffffffffffffffffff1603610f2757816040517f5b08ba18000000000000000000000000000000000000000000000000000000008152600401610f1e919061197d565b60405180910390fd5b80600560008573ffffffffffffffffffffffffffffffffffffffff1673ffffffffffffffffffffffffffffffffffffffff16815260200190815260200160002060008473ffffffffffffffffffffffffffffffffffffffff1673ffffffffffffffffffffffffffffffffffffffff16815260200190815260200160002060006101000a81548160ff0219169083151502179055508173ffffffffffffffffffffffffffffffffffffffff168373ffffffffffffffffffffffffffffffffffffffff167f17307eab39ab6107e8899845ad3d59bd9653f200f220920489ca2b5937696c3183604051611018919061180c565b60405180910390a3505050565b60008373ffffffffffffffffffffffffffffffffffffffff163b11156111cf578273ffffffffffffffffffffffffffffffffffffffff1663150b7a02868685856040518563ffffffff1660e01b815260040161108494939291906122a8565b6020604051808303816000875af19250505080156110c057506040513d601f19601f820116820180604052508101906110bd9190612309565b60015b611144573d80600081146110f0576040519150601f19603f3d011682016040523d82523d6000602084013e6110f5565b606091505b50600081510361113c57836040517f64a0ae92000000000000000000000000000000000000000000000000000000008152600401611133919061197d565b60405180910390fd5b805181602001fd5b63150b7a0260e01b7bffffffffffffffffffffffffffffffffffffffffffffffffffffffff1916817bffffffffffffffffffffffffffffffffffffffffffffffffffffffff1916146111cd57836040517f64a0ae920000000000000000000000000000000000000000000000000000000081526004016111c4919061197d565b60405180910390fd5b505b5050505050565b606060405180602001604052806000815250905090565b6060600060016111fc84611544565b01905060008167ffffffffffffffff81111561121b5761121a611ab8565b5b6040519080825280601f01601f19166020018201604052801561124d5781602001600182028036833780820191505090505b509050600082602001820190505b6001156112b0578080600190039150507f3031323334353637383961626364656600000000000000000000000000000000600a86061a8153600a85816112a4576112a3612336565b5b0494506000850361125b575b819350505050919050565b80806112f45750600073ffffffffffffffffffffffffffffffffffffffff168273ffffffffffffffffffffffffffffffffffffffff1614155b1561142857600061130484610a62565b9050600073ffffffffffffffffffffffffffffffffffffffff168373ffffffffffffffffffffffffffffffffffffffff161415801561136f57508273ffffffffffffffffffffffffffffffffffffffff168173ffffffffffffffffffffffffffffffffffffffff1614155b801561138257506113808184610964565b155b156113c457826040517fa9fbf51f0000000000000000000000000000000000000000000000000000000081526004016113bb919061197d565b60405180910390fd5b811561142657838573ffffffffffffffffffffffffffffffffffffffff168273ffffffffffffffffffffffffffffffffffffffff167f8c5be1e5ebec7d5bd14f71427d1e84f3dd0314c0f7b2291e5b200ac8c7c3b92560405160405180910390a45b505b836004600085815260200190815260200160002060006101000a81548173ffffffffffffffffffffffffffffffffffffffff021916908373ffffffffffffffffffffffffffffffffffffffff16021790555050505050565b61148b838383611697565b61153f57600073ffffffffffffffffffffffffffffffffffffffff168373ffffffffffffffffffffffffffffffffffffffff160361150057806040517f7e2732890000000000000000000000000000000000000000000000000000000081526004016114f79190611a93565b60405180910390fd5b81816040517f177e802f000000000000000000000000000000000000000000000000000000008152600401611536929190612365565b60405180910390fd5b505050565b600080600090507a184f03e93ff9f4daa797ed6e38ed64bf6a1f01000000000000000083106115a2577a184f03e93ff9f4daa797ed6e38ed64bf6a1f010000000000000000838161159857611597612336565b5b0492506040810190505b6d04ee2d6d415b85acef810000000083106115df576d04ee2d6d415b85acef810000000083816115d5576115d4612336565b5b0492506020810190505b662386f26fc10000831061160e57662386f26fc10000838161160457611603612336565b5b0492506010810190505b6305f5e1008310611637576305f5e100838161162d5761162c612336565b5b0492506008810190505b612710831061165c57612710838161165257611651612336565b5b0492506004810190505b6064831061167f576064838161167557611674612336565b5b0492506002810190505b600a831061168e576001810190505b80915050919050565b60008073ffffffffffffffffffffffffffffffffffffffff168373ffffffffffffffffffffffffffffffffffffffff161415801561174f57508273ffffffffffffffffffffffffffffffffffffffff168473ffffffffffffffffffffffffffffffffffffffff161480611710575061170f8484610964565b5b8061174e57508273ffffffffffffffffffffffffffffffffffffffff1661173683610aea565b73ffffffffffffffffffffffffffffffffffffffff16145b5b90509392505050565b6000604051905090565b600080fd5b600080fd5b60007fffffffff0000000000000000000000000000000000000000000000000000000082169050919050565b6117a18161176c565b81146117ac57600080fd5b50565b6000813590506117be81611798565b92915050565b6000602082840312156117da576117d9611762565b5b60006117e8848285016117af565b91505092915050565b60008115159050919050565b611806816117f1565b82525050565b600060208201905061182160008301846117fd565b92915050565b600081519050919050565b600082825260208201905092915050565b60005b83811015611861578082015181840152602081019050611846565b60008484015250505050565b6000601f19601f8301169050919050565b600061188982611827565b6118938185611832565b93506118a3818560208601611843565b6118ac8161186d565b840191505092915050565b600060208201905081810360008301526118d1818461187e565b905092915050565b6000819050919050565b6118ec816118d9565b81146118f757600080fd5b50565b600081359050611909816118e3565b92915050565b60006020828403121561192557611924611762565b5b6000611933848285016118fa565b91505092915050565b600073ffffffffffffffffffffffffffffffffffffffff82169050919050565b60006119678261193c565b9050919050565b6119778161195c565b82525050565b6000602082019050611992600083018461196e565b92915050565b6119a18161195c565b81146119ac57600080fd5b50565b6000813590506119be81611998565b92915050565b600080604083850312156119db576119da611762565b5b60006119e9858286016119af565b92505060206119fa858286016118fa565b9150509250929050565b600080600060608486031215611a1d57611a1c611762565b5b6000611a2b868287016119af565b9350506020611a3c868287016119af565b9250506040611a4d868287016118fa565b9150509250925092565b600060208284031215611a6d57611a6c611762565b5b6000611a7b848285016119af565b91505092915050565b611a8d816118d9565b82525050565b6000602082019050611aa86000830184611a84565b92915050565b600080fd5b600080fd5b7f4e487b7100000000000000000000000000000000000000000000000000000000600052604160045260246000fd5b611af08261186d565b810181811067ffffffffffffffff82111715611b0f57611b0e611ab8565b5b80604052505050565b6000611b22611758565b9050611b2e8282611ae7565b919050565b600067ffffffffffffffff821115611b4e57611b4d611ab8565b5b611b578261186d565b9050602081019050919050565b82818337600083830152505050565b6000611b86611b8184611b33565b611b18565b905082815260208101848484011115611ba257611ba1611ab3565b5b611bad848285611b64565b509392505050565b600082601f830112611bca57611bc9611aae565b5b8135611bda848260208601611b73565b91505092915050565b60008060408385031215611bfa57611bf9611762565b5b6000611c08858286016119af565b925050602083013567ffffffffffffffff811115611c2957611c28611767565b5b611c3585828601611bb5565b9150509250929050565b611c48816117f1565b8114611c5357600080fd5b50565b600081359050611c6581611c3f565b92915050565b60008060408385031215611c8257611c81611762565b5b6000611c90858286016119af565b9250506020611ca185828601611c56565b9150509250929050565b600067ffffffffffffffff821115611cc657611cc5611ab8565b5b611ccf8261186d565b9050602081019050919050565b6000611cef611cea84611cab565b611b18565b905082815260208101848484011115611d0b57611d0a611ab3565b5b611d16848285611b64565b509392505050565b600082601f830112611d3357611d32611aae565b5b8135611d43848260208601611cdc565b91505092915050565b60008060008060808587031215611d6657611d65611762565b5b6000611d74878288016119af565b9450506020611d85878288016119af565b9350506040611d96878288016118fa565b925050606085013567ffffffffffffffff811115611db757611db6611767565b5b611dc387828801611d1e565b91505092959194509250565b60008060408385031215611de657611de5611762565b5b6000611df4858286016119af565b9250506020611e05858286016119af565b9150509250929050565b7f4e487b7100000000000000000000000000000000000000000000000000000000600052602260045260246000fd5b60006002820490506001821680611e5657607f821691505b602082108103611e6957611e68611e0f565b5b50919050565b6000606082019050611e84600083018661196e565b611e916020830185611a84565b611e9e604083018461196e565b949350505050565b7f4e4654206e6f2065786973746500000000000000000000000000000000000000600082015250565b6000611edc600d83611832565b9150611ee782611ea6565b602082019050919050565b60006020820190508181036000830152611f0b81611ecf565b9050919050565b7f4e487b7100000000000000000000000000000000000000000000000000000000600052601160045260246000fd5b6000611f4c826118d9565b9150611f57836118d9565b9250828201905080821115611f6f57611f6e611f12565b5b92915050565b600081905092915050565b6000611f8b82611827565b611f958185611f75565b9350611fa5818560208601611843565b80840191505092915050565b6000611fbd8285611f80565b9150611fc98284611f80565b91508190509392505050565b60008190508160005260206000209050919050565b60006020601f8301049050919050565b600082821b905092915050565b6000600883026120377fffffffffffffffffffffffffffffffffffffffffffffffffffffffffffffffff82611ffa565b6120418683611ffa565b95508019841693508086168417925050509392505050565b6000819050919050565b600061207e612079612074846118d9565b612059565b6118d9565b9050919050565b6000819050919050565b61209883612063565b6120ac6120a482612085565b848454612007565b825550505050565b600090565b6120c16120b4565b6120cc81848461208f565b505050565b5b818110156120f0576120e56000826120b9565b6001810190506120d2565b5050565b601f8211156121355761210681611fd5565b61210f84611fea565b8101602085101561211e578190505b61213261212a85611fea565b8301826120d1565b50505b505050565b600082821c905092915050565b60006121586000198460080261213a565b1980831691505092915050565b60006121718383612147565b9150826002028217905092915050565b61218a82611827565b67ffffffffffffffff8111156121a3576121a2611ab8565b5b6121ad8254611e3e565b6121b88282856120f4565b600060209050601f8311600181146121eb57600084156121d9578287015190505b6121e38582612165565b86555061224b565b601f1984166121f986611fd5565b60005b82811015612221578489015182556001820191506020850194506020810190506121fc565b8683101561223e578489015161223a601f891682612147565b8355505b6001600288020188555050505b505050505050565b600081519050919050565b600082825260208201905092915050565b600061227a82612253565b612284818561225e565b9350612294818560208601611843565b61229d8161186d565b840191505092915050565b60006080820190506122bd600083018761196e565b6122ca602083018661196e565b6122d76040830185611a84565b81810360608301526122e9818461226f565b905095945050505050565b60008151905061230381611798565b92915050565b60006020828403121561231f5761231e611762565b5b600061232d848285016122f4565b91505092915050565b7f4e487b7100000000000000000000000000000000000000000000000000000000600052601260045260246000fd5b600060408201905061237a600083018561196e565b6123876020830184611a84565b939250505056fea2646970667358221220d86943065e8712579907f1cc76ee853c45f05c84c8d796d89d2a77ecdb6ff67e64736f6c634300081c0033",
  "linkReferences": {},
  "deployedLinkReferences": {}
}